{
  "abi": [
    {
      "inputs": [],
      "name": "hello",
      "outputs": [],
      "stateMutability": "nonpayable",
      "type": "function"
    },
    {
      "inputs": [],
      "name": "world",
      "outputs": [
        {
          "internalType": "bool",
          "name": "",
          "type": "bool"
        }
      ],
      "stateMutability": "view",
      "type": "function"
    }
  ],
  "bytecode": {
    "object": "0x60806040526000805460ff19169055348015601957600080fd5b5060a0806100286000396000f3fe6080604052348015600f57600080fd5b506004361060325760003560e01c806319ff1d2114603757806330b67baa14604a575b600080fd5b60486000805460ff19166001179055565b005b60005460569060ff1681565b604051901515815260200160405180910390f3fea264697066735822122001cce9c6e872804268ac0b91eeef6bf266e1a599f993b2197c2e281f946922ec64736f6c63430008110033",
    "linkReferences": {}
  },
  "methodIdentifiers": {
    "hello()": "19ff1d21",
    "world()": "30b67baa"
  },
  "id": 13
}